{
	"Contracts/PugCodeArray.sol": {
		"PugCode102": {
			"abi": [
				{
					"inputs": [
						{
							"internalType": "uint256",
							"name": "_pugUniqueIdentifier",
							"type": "uint256"
						},
						{
							"internalType": "string",
							"name": "_pugName",
							"type": "string"
						},
						{
							"internalType": "bytes1",
							"name": "_pugType",
							"type": "bytes1"
						}
					],
					"name": "addPug",
					"outputs": [],
					"stateMutability": "nonpayable",
					"type": "function"
				},
				{
					"inputs": [
						{
							"internalType": "string",
							"name": "",
							"type": "string"
						}
					],
					"name": "nameToUniqueIdentifier",
					"outputs": [
						{
							"internalType": "uint256",
							"name": "",
							"type": "uint256"
						}
					],
					"stateMutability": "view",
					"type": "function"
				},
				{
					"inputs": [
						{
							"internalType": "uint256",
							"name": "",
							"type": "uint256"
						}
					],
					"name": "pug",
					"outputs": [
						{
							"internalType": "uint256",
							"name": "pugUniqueIdentifier",
							"type": "uint256"
						},
						{
							"internalType": "string",
							"name": "pugName",
							"type": "string"
						},
						{
							"internalType": "bytes1",
							"name": "pugType",
							"type": "bytes1"
						}
					],
					"stateMutability": "view",
					"type": "function"
				}
			],
			"devdoc": {
				"kind": "dev",
				"methods": {},
				"version": 1
			},
			"evm": {
				"assembly": "    /* \"Contracts/PugCodeArray.sol\":102:918  contract PugCode102 {\r... */\n  mstore(0x40, 0x80)\n  callvalue\n  dup1\n  iszero\n  tag_1\n  jumpi\n  0x00\n  dup1\n  revert\ntag_1:\n  pop\n  dataSize(sub_0)\n  dup1\n  dataOffset(sub_0)\n  0x00\n  codecopy\n  0x00\n  return\nstop\n\nsub_0: assembly {\n        /* \"Contracts/PugCodeArray.sol\":102:918  contract PugCode102 {\r... */\n      mstore(0x40, 0x80)\n      callvalue\n      dup1\n      iszero\n      tag_1\n      jumpi\n      0x00\n      dup1\n      revert\n    tag_1:\n      pop\n      jumpi(tag_2, lt(calldatasize, 0x04))\n      shr(0xe0, calldataload(0x00))\n      dup1\n      0x4ceb1f7e\n      eq\n      tag_3\n      jumpi\n      dup1\n      0x7f57e416\n      eq\n      tag_4\n      jumpi\n      dup1\n      0xdc696484\n      eq\n      tag_5\n      jumpi\n    tag_2:\n      0x00\n      dup1\n      revert\n        /* \"Contracts/PugCodeArray.sol\":389:405  Pug[] public pug */\n    tag_3:\n      tag_6\n      0x04\n      dup1\n      calldatasize\n      sub\n      dup2\n      add\n      swap1\n      tag_7\n      swap2\n      swap1\n      tag_8\n      jump\t// in\n    tag_7:\n      tag_9\n      jump\t// in\n    tag_6:\n      mload(0x40)\n      tag_10\n      swap4\n      swap3\n      swap2\n      swap1\n      tag_11\n      jump\t// in\n    tag_10:\n      mload(0x40)\n      dup1\n      swap2\n      sub\n      swap1\n      return\n        /* \"Contracts/PugCodeArray.sol\":559:913  function addPug(uint256 _pugUniqueIdentifier, string memory _pugName, bytes1 _pugType) public {\r... */\n    tag_4:\n      tag_12\n      0x04\n      dup1\n      calldatasize\n      sub\n      dup2\n      add\n      swap1\n      tag_13\n      swap2\n      swap1\n      tag_14\n      jump\t// in\n    tag_13:\n      tag_15\n      jump\t// in\n    tag_12:\n      stop\n        /* \"Contracts/PugCodeArray.sol\":207:264  mapping(string => uint256) public  nameToUniqueIdentifier */\n    tag_5:\n      tag_16\n      0x04\n      dup1\n      calldatasize\n      sub\n      dup2\n      add\n      swap1\n      tag_17\n      swap2\n      swap1\n      tag_18\n      jump\t// in\n    tag_17:\n      tag_19\n      jump\t// in\n    tag_16:\n      mload(0x40)\n      tag_20\n      swap2\n      swap1\n      tag_21\n      jump\t// in\n    tag_20:\n      mload(0x40)\n      dup1\n      swap2\n      sub\n      swap1\n      return\n        /* \"Contracts/PugCodeArray.sol\":389:405  Pug[] public pug */\n    tag_9:\n      0x04\n      dup2\n      dup2\n      sload\n      dup2\n      lt\n      tag_22\n      jumpi\n      0x00\n      dup1\n      revert\n    tag_22:\n      swap1\n      0x00\n      mstore\n      keccak256(0x00, 0x20)\n      swap1\n      0x03\n      mul\n      add\n      0x00\n      swap2\n      pop\n      swap1\n      pop\n      dup1\n      0x00\n      add\n      sload\n      swap1\n      dup1\n      0x01\n      add\n      dup1\n      sload\n      tag_24\n      swap1\n      tag_25\n      jump\t// in\n    tag_24:\n      dup1\n      0x1f\n      add\n      0x20\n      dup1\n      swap2\n      div\n      mul\n      0x20\n      add\n      mload(0x40)\n      swap1\n      dup2\n      add\n      0x40\n      mstore\n      dup1\n      swap3\n      swap2\n      swap1\n      dup2\n      dup2\n      mstore\n      0x20\n      add\n      dup3\n      dup1\n      sload\n      tag_26\n      swap1\n      tag_25\n      jump\t// in\n    tag_26:\n      dup1\n      iszero\n      tag_27\n      jumpi\n      dup1\n      0x1f\n      lt\n      tag_28\n      jumpi\n      0x0100\n      dup1\n      dup4\n      sload\n      div\n      mul\n      dup4\n      mstore\n      swap2\n      0x20\n      add\n      swap2\n      jump(tag_27)\n    tag_28:\n      dup3\n      add\n      swap2\n      swap1\n      0x00\n      mstore\n      keccak256(0x00, 0x20)\n      swap1\n    tag_29:\n      dup2\n      sload\n      dup2\n      mstore\n      swap1\n      0x01\n      add\n      swap1\n      0x20\n      add\n      dup1\n      dup4\n      gt\n      tag_29\n      jumpi\n      dup3\n      swap1\n      sub\n      0x1f\n      and\n      dup3\n      add\n      swap2\n    tag_27:\n      pop\n      pop\n      pop\n      pop\n      pop\n      swap1\n      dup1\n      0x02\n      add\n      0x00\n      swap1\n      sload\n      swap1\n      0x0100\n      exp\n      swap1\n      div\n      0xf8\n      shl\n      swap1\n      pop\n      dup4\n      jump\t// out\n        /* \"Contracts/PugCodeArray.sol\":559:913  function addPug(uint256 _pugUniqueIdentifier, string memory _pugName, bytes1 _pugType) public {\r... */\n    tag_15:\n        /* \"Contracts/PugCodeArray.sol\":664:681  Pug memory newPug */\n      0x00\n        /* \"Contracts/PugCodeArray.sol\":684:812  Pug({\r... */\n      mload(0x40)\n      dup1\n      0x60\n      add\n      0x40\n      mstore\n      dup1\n        /* \"Contracts/PugCodeArray.sol\":724:744  _pugUniqueIdentifier */\n      dup6\n        /* \"Contracts/PugCodeArray.sol\":684:812  Pug({\r... */\n      dup2\n      mstore\n      0x20\n      add\n        /* \"Contracts/PugCodeArray.sol\":769:777  _pugName */\n      dup5\n        /* \"Contracts/PugCodeArray.sol\":684:812  Pug({\r... */\n      dup2\n      mstore\n      0x20\n      add\n        /* \"Contracts/PugCodeArray.sol\":802:810  _pugType */\n      dup4\n        /* \"Contracts/PugCodeArray.sol\":684:812  Pug({\r... */\n      not(0xffffffffffffffffffffffffffffffffffffffffffffffffffffffffffffff)\n      and\n      dup2\n      mstore\n      pop\n        /* \"Contracts/PugCodeArray.sol\":664:812  Pug memory newPug = Pug({\r... */\n      swap1\n      pop\n        /* \"Contracts/PugCodeArray.sol\":823:826  pug */\n      0x04\n        /* \"Contracts/PugCodeArray.sol\":832:838  newPug */\n      dup2\n        /* \"Contracts/PugCodeArray.sol\":823:839  pug.push(newPug) */\n      swap1\n      dup1\n      0x01\n      dup2\n      sload\n      add\n      dup1\n      dup3\n      sstore\n      dup1\n      swap2\n      pop\n      pop\n      0x01\n      swap1\n      sub\n      swap1\n      0x00\n      mstore\n      keccak256(0x00, 0x20)\n      swap1\n      0x03\n      mul\n      add\n      0x00\n      swap1\n      swap2\n      swap1\n      swap2\n      swap1\n      swap2\n      pop\n      0x00\n      dup3\n      add\n      mload\n      dup2\n      0x00\n      add\n      sstore\n      0x20\n      dup3\n      add\n      mload\n      dup2\n      0x01\n      add\n      swap1\n      dup1\n      mload\n      swap1\n      0x20\n      add\n      swap1\n      tag_32\n      swap3\n      swap2\n      swap1\n      tag_33\n      jump\t// in\n    tag_32:\n      pop\n      0x40\n      dup3\n      add\n      mload\n      dup2\n      0x02\n      add\n      exp(0x0100, 0x00)\n      dup2\n      sload\n      dup2\n      0xff\n      mul\n      not\n      and\n      swap1\n      dup4\n      0xf8\n      shr\n      mul\n      or\n      swap1\n      sstore\n      pop\n      pop\n      pop\n        /* \"Contracts/PugCodeArray.sol\":885:905  _pugUniqueIdentifier */\n      dup4\n        /* \"Contracts/PugCodeArray.sol\":850:872  nameToUniqueIdentifier */\n      0x03\n        /* \"Contracts/PugCodeArray.sol\":873:881  _pugName */\n      dup5\n        /* \"Contracts/PugCodeArray.sol\":850:882  nameToUniqueIdentifier[_pugName] */\n      mload(0x40)\n      tag_34\n      swap2\n      swap1\n      tag_35\n      jump\t// in\n    tag_34:\n      swap1\n      dup2\n      mstore\n      0x20\n      add\n      mload(0x40)\n      dup1\n      swap2\n      sub\n      swap1\n      keccak256\n        /* \"Contracts/PugCodeArray.sol\":850:905  nameToUniqueIdentifier[_pugName] = _pugUniqueIdentifier */\n      dup2\n      swap1\n      sstore\n      pop\n        /* \"Contracts/PugCodeArray.sol\":653:913  {\r... */\n      pop\n        /* \"Contracts/PugCodeArray.sol\":559:913  function addPug(uint256 _pugUniqueIdentifier, string memory _pugName, bytes1 _pugType) public {\r... */\n      pop\n      pop\n      pop\n      jump\t// out\n        /* \"Contracts/PugCodeArray.sol\":207:264  mapping(string => uint256) public  nameToUniqueIdentifier */\n    tag_19:\n      0x03\n      dup2\n      dup1\n      mload\n      0x20\n      dup2\n      add\n      dup3\n      add\n      dup1\n      mload\n      dup5\n      dup3\n      mstore\n      0x20\n      dup4\n      add\n      0x20\n      dup6\n      add\n      keccak256\n      dup2\n      dup4\n      mstore\n      dup1\n      swap6\n      pop\n      pop\n      pop\n      pop\n      pop\n      pop\n      0x00\n      swap2\n      pop\n      swap1\n      pop\n      sload\n      dup2\n      jump\t// out\n    tag_33:\n      dup3\n      dup1\n      sload\n      tag_36\n      swap1\n      tag_25\n      jump\t// in\n    tag_36:\n      swap1\n      0x00\n      mstore\n      keccak256(0x00, 0x20)\n      swap1\n      0x1f\n      add\n      0x20\n      swap1\n      div\n      dup2\n      add\n      swap3\n      dup3\n      tag_38\n      jumpi\n      0x00\n      dup6\n      sstore\n      jump(tag_37)\n    tag_38:\n      dup3\n      0x1f\n      lt\n      tag_39\n      jumpi\n      dup1\n      mload\n      not(0xff)\n      and\n      dup4\n      dup1\n      add\n      or\n      dup6\n      sstore\n      jump(tag_37)\n    tag_39:\n      dup3\n      dup1\n      add\n      0x01\n      add\n      dup6\n      sstore\n      dup3\n      iszero\n      tag_37\n      jumpi\n      swap2\n      dup3\n      add\n    tag_40:\n      dup3\n      dup2\n      gt\n      iszero\n      tag_41\n      jumpi\n      dup3\n      mload\n      dup3\n      sstore\n      swap2\n      0x20\n      add\n      swap2\n      swap1\n      0x01\n      add\n      swap1\n      jump(tag_40)\n    tag_41:\n    tag_37:\n      pop\n      swap1\n      pop\n      tag_42\n      swap2\n      swap1\n      tag_43\n      jump\t// in\n    tag_42:\n      pop\n      swap1\n      jump\t// out\n    tag_43:\n    tag_44:\n      dup1\n      dup3\n      gt\n      iszero\n      tag_45\n      jumpi\n      0x00\n      dup2\n      0x00\n      swap1\n      sstore\n      pop\n      0x01\n      add\n      jump(tag_44)\n    tag_45:\n      pop\n      swap1\n      jump\t// out\n        /* \"#utility.yul\":7:419   */\n    tag_47:\n        /* \"#utility.yul\":85:90   */\n      0x00\n        /* \"#utility.yul\":110:176   */\n      tag_49\n        /* \"#utility.yul\":126:175   */\n      tag_50\n        /* \"#utility.yul\":168:174   */\n      dup5\n        /* \"#utility.yul\":126:175   */\n      tag_51\n      jump\t// in\n    tag_50:\n        /* \"#utility.yul\":110:176   */\n      tag_52\n      jump\t// in\n    tag_49:\n        /* \"#utility.yul\":101:176   */\n      swap1\n      pop\n        /* \"#utility.yul\":199:205   */\n      dup3\n        /* \"#utility.yul\":192:197   */\n      dup2\n        /* \"#utility.yul\":185:206   */\n      mstore\n        /* \"#utility.yul\":237:241   */\n      0x20\n        /* \"#utility.yul\":230:235   */\n      dup2\n        /* \"#utility.yul\":226:242   */\n      add\n        /* \"#utility.yul\":275:278   */\n      dup5\n        /* \"#utility.yul\":266:272   */\n      dup5\n        /* \"#utility.yul\":261:264   */\n      dup5\n        /* \"#utility.yul\":257:273   */\n      add\n        /* \"#utility.yul\":254:279   */\n      gt\n        /* \"#utility.yul\":251:363   */\n      iszero\n      tag_53\n      jumpi\n        /* \"#utility.yul\":282:361   */\n      tag_54\n      tag_55\n      jump\t// in\n    tag_54:\n        /* \"#utility.yul\":251:363   */\n    tag_53:\n        /* \"#utility.yul\":372:413   */\n      tag_56\n        /* \"#utility.yul\":406:412   */\n      dup5\n        /* \"#utility.yul\":401:404   */\n      dup3\n        /* \"#utility.yul\":396:399   */\n      dup6\n        /* \"#utility.yul\":372:413   */\n      tag_57\n      jump\t// in\n    tag_56:\n        /* \"#utility.yul\":91:419   */\n      pop\n        /* \"#utility.yul\":7:419   */\n      swap4\n      swap3\n      pop\n      pop\n      pop\n      jump\t// out\n        /* \"#utility.yul\":425:562   */\n    tag_58:\n        /* \"#utility.yul\":470:475   */\n      0x00\n        /* \"#utility.yul\":508:514   */\n      dup2\n        /* \"#utility.yul\":495:515   */\n      calldataload\n        /* \"#utility.yul\":486:515   */\n      swap1\n      pop\n        /* \"#utility.yul\":524:556   */\n      tag_60\n        /* \"#utility.yul\":550:555   */\n      dup2\n        /* \"#utility.yul\":524:556   */\n      tag_61\n      jump\t// in\n    tag_60:\n        /* \"#utility.yul\":425:562   */\n      swap3\n      swap2\n      pop\n      pop\n      jump\t// out\n        /* \"#utility.yul\":582:922   */\n    tag_62:\n        /* \"#utility.yul\":638:643   */\n      0x00\n        /* \"#utility.yul\":687:690   */\n      dup3\n        /* \"#utility.yul\":680:684   */\n      0x1f\n        /* \"#utility.yul\":672:678   */\n      dup4\n        /* \"#utility.yul\":668:685   */\n      add\n        /* \"#utility.yul\":664:691   */\n      slt\n        /* \"#utility.yul\":654:776   */\n      tag_64\n      jumpi\n        /* \"#utility.yul\":695:774   */\n      tag_65\n      tag_66\n      jump\t// in\n    tag_65:\n        /* \"#utility.yul\":654:776   */\n    tag_64:\n        /* \"#utility.yul\":812:818   */\n      dup2\n        /* \"#utility.yul\":799:819   */\n      calldataload\n        /* \"#utility.yul\":837:916   */\n      tag_67\n        /* \"#utility.yul\":912:915   */\n      dup5\n        /* \"#utility.yul\":904:910   */\n      dup3\n        /* \"#utility.yul\":897:901   */\n      0x20\n        /* \"#utility.yul\":889:895   */\n      dup7\n        /* \"#utility.yul\":885:902   */\n      add\n        /* \"#utility.yul\":837:916   */\n      tag_47\n      jump\t// in\n    tag_67:\n        /* \"#utility.yul\":828:916   */\n      swap2\n      pop\n        /* \"#utility.yul\":644:922   */\n      pop\n        /* \"#utility.yul\":582:922   */\n      swap3\n      swap2\n      pop\n      pop\n      jump\t// out\n        /* \"#utility.yul\":928:1067   */\n    tag_68:\n        /* \"#utility.yul\":974:979   */\n      0x00\n        /* \"#utility.yul\":1012:1018   */\n      dup2\n        /* \"#utility.yul\":999:1019   */\n      calldataload\n        /* \"#utility.yul\":990:1019   */\n      swap1\n      pop\n        /* \"#utility.yul\":1028:1061   */\n      tag_70\n        /* \"#utility.yul\":1055:1060   */\n      dup2\n        /* \"#utility.yul\":1028:1061   */\n      tag_71\n      jump\t// in\n    tag_70:\n        /* \"#utility.yul\":928:1067   */\n      swap3\n      swap2\n      pop\n      pop\n      jump\t// out\n        /* \"#utility.yul\":1073:1582   */\n    tag_18:\n        /* \"#utility.yul\":1142:1148   */\n      0x00\n        /* \"#utility.yul\":1191:1193   */\n      0x20\n        /* \"#utility.yul\":1179:1188   */\n      dup3\n        /* \"#utility.yul\":1170:1177   */\n      dup5\n        /* \"#utility.yul\":1166:1189   */\n      sub\n        /* \"#utility.yul\":1162:1194   */\n      slt\n        /* \"#utility.yul\":1159:1278   */\n      iszero\n      tag_73\n      jumpi\n        /* \"#utility.yul\":1197:1276   */\n      tag_74\n      tag_75\n      jump\t// in\n    tag_74:\n        /* \"#utility.yul\":1159:1278   */\n    tag_73:\n        /* \"#utility.yul\":1345:1346   */\n      0x00\n        /* \"#utility.yul\":1334:1343   */\n      dup3\n        /* \"#utility.yul\":1330:1347   */\n      add\n        /* \"#utility.yul\":1317:1348   */\n      calldataload\n        /* \"#utility.yul\":1375:1393   */\n      0xffffffffffffffff\n        /* \"#utility.yul\":1367:1373   */\n      dup2\n        /* \"#utility.yul\":1364:1394   */\n      gt\n        /* \"#utility.yul\":1361:1478   */\n      iszero\n      tag_76\n      jumpi\n        /* \"#utility.yul\":1397:1476   */\n      tag_77\n      tag_78\n      jump\t// in\n    tag_77:\n        /* \"#utility.yul\":1361:1478   */\n    tag_76:\n        /* \"#utility.yul\":1502:1565   */\n      tag_79\n        /* \"#utility.yul\":1557:1564   */\n      dup5\n        /* \"#utility.yul\":1548:1554   */\n      dup3\n        /* \"#utility.yul\":1537:1546   */\n      dup6\n        /* \"#utility.yul\":1533:1555   */\n      add\n        /* \"#utility.yul\":1502:1565   */\n      tag_62\n      jump\t// in\n    tag_79:\n        /* \"#utility.yul\":1492:1565   */\n      swap2\n      pop\n        /* \"#utility.yul\":1288:1575   */\n      pop\n        /* \"#utility.yul\":1073:1582   */\n      swap3\n      swap2\n      pop\n      pop\n      jump\t// out\n        /* \"#utility.yul\":1588:1917   */\n    tag_8:\n        /* \"#utility.yul\":1647:1653   */\n      0x00\n        /* \"#utility.yul\":1696:1698   */\n      0x20\n        /* \"#utility.yul\":1684:1693   */\n      dup3\n        /* \"#utility.yul\":1675:1682   */\n      dup5\n        /* \"#utility.yul\":1671:1694   */\n      sub\n        /* \"#utility.yul\":1667:1699   */\n      slt\n        /* \"#utility.yul\":1664:1783   */\n      iszero\n      tag_81\n      jumpi\n        /* \"#utility.yul\":1702:1781   */\n      tag_82\n      tag_75\n      jump\t// in\n    tag_82:\n        /* \"#utility.yul\":1664:1783   */\n    tag_81:\n        /* \"#utility.yul\":1822:1823   */\n      0x00\n        /* \"#utility.yul\":1847:1900   */\n      tag_83\n        /* \"#utility.yul\":1892:1899   */\n      dup5\n        /* \"#utility.yul\":1883:1889   */\n      dup3\n        /* \"#utility.yul\":1872:1881   */\n      dup6\n        /* \"#utility.yul\":1868:1890   */\n      add\n        /* \"#utility.yul\":1847:1900   */\n      tag_68\n      jump\t// in\n    tag_83:\n        /* \"#utility.yul\":1837:1900   */\n      swap2\n      pop\n        /* \"#utility.yul\":1793:1910   */\n      pop\n        /* \"#utility.yul\":1588:1917   */\n      swap3\n      swap2\n      pop\n      pop\n      jump\t// out\n        /* \"#utility.yul\":1923:2720   */\n    tag_14:\n        /* \"#utility.yul\":2009:2015   */\n      0x00\n        /* \"#utility.yul\":2017:2023   */\n      dup1\n        /* \"#utility.yul\":2025:2031   */\n      0x00\n        /* \"#utility.yul\":2074:2076   */\n      0x60\n        /* \"#utility.yul\":2062:2071   */\n      dup5\n        /* \"#utility.yul\":2053:2060   */\n      dup7\n        /* \"#utility.yul\":2049:2072   */\n      sub\n        /* \"#utility.yul\":2045:2077   */\n      slt\n        /* \"#utility.yul\":2042:2161   */\n      iszero\n      tag_85\n      jumpi\n        /* \"#utility.yul\":2080:2159   */\n      tag_86\n      tag_75\n      jump\t// in\n    tag_86:\n        /* \"#utility.yul\":2042:2161   */\n    tag_85:\n        /* \"#utility.yul\":2200:2201   */\n      0x00\n        /* \"#utility.yul\":2225:2278   */\n      tag_87\n        /* \"#utility.yul\":2270:2277   */\n      dup7\n        /* \"#utility.yul\":2261:2267   */\n      dup3\n        /* \"#utility.yul\":2250:2259   */\n      dup8\n        /* \"#utility.yul\":2246:2268   */\n      add\n        /* \"#utility.yul\":2225:2278   */\n      tag_68\n      jump\t// in\n    tag_87:\n        /* \"#utility.yul\":2215:2278   */\n      swap4\n      pop\n        /* \"#utility.yul\":2171:2288   */\n      pop\n        /* \"#utility.yul\":2355:2357   */\n      0x20\n        /* \"#utility.yul\":2344:2353   */\n      dup5\n        /* \"#utility.yul\":2340:2358   */\n      add\n        /* \"#utility.yul\":2327:2359   */\n      calldataload\n        /* \"#utility.yul\":2386:2404   */\n      0xffffffffffffffff\n        /* \"#utility.yul\":2378:2384   */\n      dup2\n        /* \"#utility.yul\":2375:2405   */\n      gt\n        /* \"#utility.yul\":2372:2489   */\n      iszero\n      tag_88\n      jumpi\n        /* \"#utility.yul\":2408:2487   */\n      tag_89\n      tag_78\n      jump\t// in\n    tag_89:\n        /* \"#utility.yul\":2372:2489   */\n    tag_88:\n        /* \"#utility.yul\":2513:2576   */\n      tag_90\n        /* \"#utility.yul\":2568:2575   */\n      dup7\n        /* \"#utility.yul\":2559:2565   */\n      dup3\n        /* \"#utility.yul\":2548:2557   */\n      dup8\n        /* \"#utility.yul\":2544:2566   */\n      add\n        /* \"#utility.yul\":2513:2576   */\n      tag_62\n      jump\t// in\n    tag_90:\n        /* \"#utility.yul\":2503:2576   */\n      swap3\n      pop\n        /* \"#utility.yul\":2298:2586   */\n      pop\n        /* \"#utility.yul\":2625:2627   */\n      0x40\n        /* \"#utility.yul\":2651:2703   */\n      tag_91\n        /* \"#utility.yul\":2695:2702   */\n      dup7\n        /* \"#utility.yul\":2686:2692   */\n      dup3\n        /* \"#utility.yul\":2675:2684   */\n      dup8\n        /* \"#utility.yul\":2671:2693   */\n      add\n        /* \"#utility.yul\":2651:2703   */\n      tag_58\n      jump\t// in\n    tag_91:\n        /* \"#utility.yul\":2641:2703   */\n      swap2\n      pop\n        /* \"#utility.yul\":2596:2713   */\n      pop\n        /* \"#utility.yul\":1923:2720   */\n      swap3\n      pop\n      swap3\n      pop\n      swap3\n      jump\t// out\n        /* \"#utility.yul\":2726:2841   */\n    tag_92:\n        /* \"#utility.yul\":2811:2834   */\n      tag_94\n        /* \"#utility.yul\":2828:2833   */\n      dup2\n        /* \"#utility.yul\":2811:2834   */\n      tag_95\n      jump\t// in\n    tag_94:\n        /* \"#utility.yul\":2806:2809   */\n      dup3\n        /* \"#utility.yul\":2799:2835   */\n      mstore\n        /* \"#utility.yul\":2726:2841   */\n      pop\n      pop\n      jump\t// out\n        /* \"#utility.yul\":2847:3211   */\n    tag_96:\n        /* \"#utility.yul\":2935:2938   */\n      0x00\n        /* \"#utility.yul\":2963:3002   */\n      tag_98\n        /* \"#utility.yul\":2996:3001   */\n      dup3\n        /* \"#utility.yul\":2963:3002   */\n      tag_99\n      jump\t// in\n    tag_98:\n        /* \"#utility.yul\":3018:3089   */\n      tag_100\n        /* \"#utility.yul\":3082:3088   */\n      dup2\n        /* \"#utility.yul\":3077:3080   */\n      dup6\n        /* \"#utility.yul\":3018:3089   */\n      tag_101\n      jump\t// in\n    tag_100:\n        /* \"#utility.yul\":3011:3089   */\n      swap4\n      pop\n        /* \"#utility.yul\":3098:3150   */\n      tag_102\n        /* \"#utility.yul\":3143:3149   */\n      dup2\n        /* \"#utility.yul\":3138:3141   */\n      dup6\n        /* \"#utility.yul\":3131:3135   */\n      0x20\n        /* \"#utility.yul\":3124:3129   */\n      dup7\n        /* \"#utility.yul\":3120:3136   */\n      add\n        /* \"#utility.yul\":3098:3150   */\n      tag_103\n      jump\t// in\n    tag_102:\n        /* \"#utility.yul\":3175:3204   */\n      tag_104\n        /* \"#utility.yul\":3197:3203   */\n      dup2\n        /* \"#utility.yul\":3175:3204   */\n      tag_105\n      jump\t// in\n    tag_104:\n        /* \"#utility.yul\":3170:3173   */\n      dup5\n        /* \"#utility.yul\":3166:3205   */\n      add\n        /* \"#utility.yul\":3159:3205   */\n      swap2\n      pop\n        /* \"#utility.yul\":2939:3211   */\n      pop\n        /* \"#utility.yul\":2847:3211   */\n      swap3\n      swap2\n      pop\n      pop\n      jump\t// out\n        /* \"#utility.yul\":3217:3594   */\n    tag_106:\n        /* \"#utility.yul\":3323:3326   */\n      0x00\n        /* \"#utility.yul\":3351:3390   */\n      tag_108\n        /* \"#utility.yul\":3384:3389   */\n      dup3\n        /* \"#utility.yul\":3351:3390   */\n      tag_99\n      jump\t// in\n    tag_108:\n        /* \"#utility.yul\":3406:3495   */\n      tag_109\n        /* \"#utility.yul\":3488:3494   */\n      dup2\n        /* \"#utility.yul\":3483:3486   */\n      dup6\n        /* \"#utility.yul\":3406:3495   */\n      tag_110\n      jump\t// in\n    tag_109:\n        /* \"#utility.yul\":3399:3495   */\n      swap4\n      pop\n        /* \"#utility.yul\":3504:3556   */\n      tag_111\n        /* \"#utility.yul\":3549:3555   */\n      dup2\n        /* \"#utility.yul\":3544:3547   */\n      dup6\n        /* \"#utility.yul\":3537:3541   */\n      0x20\n        /* \"#utility.yul\":3530:3535   */\n      dup7\n        /* \"#utility.yul\":3526:3542   */\n      add\n        /* \"#utility.yul\":3504:3556   */\n      tag_103\n      jump\t// in\n    tag_111:\n        /* \"#utility.yul\":3581:3587   */\n      dup1\n        /* \"#utility.yul\":3576:3579   */\n      dup5\n        /* \"#utility.yul\":3572:3588   */\n      add\n        /* \"#utility.yul\":3565:3588   */\n      swap2\n      pop\n        /* \"#utility.yul\":3327:3594   */\n      pop\n        /* \"#utility.yul\":3217:3594   */\n      swap3\n      swap2\n      pop\n      pop\n      jump\t// out\n        /* \"#utility.yul\":3600:3718   */\n    tag_112:\n        /* \"#utility.yul\":3687:3711   */\n      tag_114\n        /* \"#utility.yul\":3705:3710   */\n      dup2\n        /* \"#utility.yul\":3687:3711   */\n      tag_115\n      jump\t// in\n    tag_114:\n        /* \"#utility.yul\":3682:3685   */\n      dup3\n        /* \"#utility.yul\":3675:3712   */\n      mstore\n        /* \"#utility.yul\":3600:3718   */\n      pop\n      pop\n      jump\t// out\n        /* \"#utility.yul\":3724:3999   */\n    tag_35:\n        /* \"#utility.yul\":3856:3859   */\n      0x00\n        /* \"#utility.yul\":3878:3973   */\n      tag_117\n        /* \"#utility.yul\":3969:3972   */\n      dup3\n        /* \"#utility.yul\":3960:3966   */\n      dup5\n        /* \"#utility.yul\":3878:3973   */\n      tag_106\n      jump\t// in\n    tag_117:\n        /* \"#utility.yul\":3871:3973   */\n      swap2\n      pop\n        /* \"#utility.yul\":3990:3993   */\n      dup2\n        /* \"#utility.yul\":3983:3993   */\n      swap1\n      pop\n        /* \"#utility.yul\":3724:3999   */\n      swap3\n      swap2\n      pop\n      pop\n      jump\t// out\n        /* \"#utility.yul\":4005:4227   */\n    tag_21:\n        /* \"#utility.yul\":4098:4102   */\n      0x00\n        /* \"#utility.yul\":4136:4138   */\n      0x20\n        /* \"#utility.yul\":4125:4134   */\n      dup3\n        /* \"#utility.yul\":4121:4139   */\n      add\n        /* \"#utility.yul\":4113:4139   */\n      swap1\n      pop\n        /* \"#utility.yul\":4149:4220   */\n      tag_119\n        /* \"#utility.yul\":4217:4218   */\n      0x00\n        /* \"#utility.yul\":4206:4215   */\n      dup4\n        /* \"#utility.yul\":4202:4219   */\n      add\n        /* \"#utility.yul\":4193:4199   */\n      dup5\n        /* \"#utility.yul\":4149:4220   */\n      tag_112\n      jump\t// in\n    tag_119:\n        /* \"#utility.yul\":4005:4227   */\n      swap3\n      swap2\n      pop\n      pop\n      jump\t// out\n        /* \"#utility.yul\":4233:4762   */\n    tag_11:\n        /* \"#utility.yul\":4400:4404   */\n      0x00\n        /* \"#utility.yul\":4438:4440   */\n      0x60\n        /* \"#utility.yul\":4427:4436   */\n      dup3\n        /* \"#utility.yul\":4423:4441   */\n      add\n        /* \"#utility.yul\":4415:4441   */\n      swap1\n      pop\n        /* \"#utility.yul\":4451:4522   */\n      tag_121\n        /* \"#utility.yul\":4519:4520   */\n      0x00\n        /* \"#utility.yul\":4508:4517   */\n      dup4\n        /* \"#utility.yul\":4504:4521   */\n      add\n        /* \"#utility.yul\":4495:4501   */\n      dup7\n        /* \"#utility.yul\":4451:4522   */\n      tag_112\n      jump\t// in\n    tag_121:\n        /* \"#utility.yul\":4569:4578   */\n      dup2\n        /* \"#utility.yul\":4563:4567   */\n      dup2\n        /* \"#utility.yul\":4559:4579   */\n      sub\n        /* \"#utility.yul\":4554:4556   */\n      0x20\n        /* \"#utility.yul\":4543:4552   */\n      dup4\n        /* \"#utility.yul\":4539:4557   */\n      add\n        /* \"#utility.yul\":4532:4580   */\n      mstore\n        /* \"#utility.yul\":4597:4675   */\n      tag_122\n        /* \"#utility.yul\":4670:4674   */\n      dup2\n        /* \"#utility.yul\":4661:4667   */\n      dup6\n        /* \"#utility.yul\":4597:4675   */\n      tag_96\n      jump\t// in\n    tag_122:\n        /* \"#utility.yul\":4589:4675   */\n      swap1\n      pop\n        /* \"#utility.yul\":4685:4755   */\n      tag_123\n        /* \"#utility.yul\":4751:4753   */\n      0x40\n        /* \"#utility.yul\":4740:4749   */\n      dup4\n        /* \"#utility.yul\":4736:4754   */\n      add\n        /* \"#utility.yul\":4727:4733   */\n      dup5\n        /* \"#utility.yul\":4685:4755   */\n      tag_92\n      jump\t// in\n    tag_123:\n        /* \"#utility.yul\":4233:4762   */\n      swap5\n      swap4\n      pop\n      pop\n      pop\n      pop\n      jump\t// out\n        /* \"#utility.yul\":4768:4897   */\n    tag_52:\n        /* \"#utility.yul\":4802:4808   */\n      0x00\n        /* \"#utility.yul\":4829:4849   */\n      tag_125\n      tag_126\n      jump\t// in\n    tag_125:\n        /* \"#utility.yul\":4819:4849   */\n      swap1\n      pop\n        /* \"#utility.yul\":4858:4891   */\n      tag_127\n        /* \"#utility.yul\":4886:4890   */\n      dup3\n        /* \"#utility.yul\":4878:4884   */\n      dup3\n        /* \"#utility.yul\":4858:4891   */\n      tag_128\n      jump\t// in\n    tag_127:\n        /* \"#utility.yul\":4768:4897   */\n      swap2\n      swap1\n      pop\n      jump\t// out\n        /* \"#utility.yul\":4903:4978   */\n    tag_126:\n        /* \"#utility.yul\":4936:4942   */\n      0x00\n        /* \"#utility.yul\":4969:4971   */\n      0x40\n        /* \"#utility.yul\":4963:4972   */\n      mload\n        /* \"#utility.yul\":4953:4972   */\n      swap1\n      pop\n        /* \"#utility.yul\":4903:4978   */\n      swap1\n      jump\t// out\n        /* \"#utility.yul\":4984:5292   */\n    tag_51:\n        /* \"#utility.yul\":5046:5050   */\n      0x00\n        /* \"#utility.yul\":5136:5154   */\n      0xffffffffffffffff\n        /* \"#utility.yul\":5128:5134   */\n      dup3\n        /* \"#utility.yul\":5125:5155   */\n      gt\n        /* \"#utility.yul\":5122:5178   */\n      iszero\n      tag_131\n      jumpi\n        /* \"#utility.yul\":5158:5176   */\n      tag_132\n      tag_133\n      jump\t// in\n    tag_132:\n        /* \"#utility.yul\":5122:5178   */\n    tag_131:\n        /* \"#utility.yul\":5196:5225   */\n      tag_134\n        /* \"#utility.yul\":5218:5224   */\n      dup3\n        /* \"#utility.yul\":5196:5225   */\n      tag_105\n      jump\t// in\n    tag_134:\n        /* \"#utility.yul\":5188:5225   */\n      swap1\n      pop\n        /* \"#utility.yul\":5280:5284   */\n      0x20\n        /* \"#utility.yul\":5274:5278   */\n      dup2\n        /* \"#utility.yul\":5270:5285   */\n      add\n        /* \"#utility.yul\":5262:5285   */\n      swap1\n      pop\n        /* \"#utility.yul\":4984:5292   */\n      swap2\n      swap1\n      pop\n      jump\t// out\n        /* \"#utility.yul\":5298:5397   */\n    tag_99:\n        /* \"#utility.yul\":5350:5356   */\n      0x00\n        /* \"#utility.yul\":5384:5389   */\n      dup2\n        /* \"#utility.yul\":5378:5390   */\n      mload\n        /* \"#utility.yul\":5368:5390   */\n      swap1\n      pop\n        /* \"#utility.yul\":5298:5397   */\n      swap2\n      swap1\n      pop\n      jump\t// out\n        /* \"#utility.yul\":5403:5572   */\n    tag_101:\n        /* \"#utility.yul\":5487:5498   */\n      0x00\n        /* \"#utility.yul\":5521:5527   */\n      dup3\n        /* \"#utility.yul\":5516:5519   */\n      dup3\n        /* \"#utility.yul\":5509:5528   */\n      mstore\n        /* \"#utility.yul\":5561:5565   */\n      0x20\n        /* \"#utility.yul\":5556:5559   */\n      dup3\n        /* \"#utility.yul\":5552:5566   */\n      add\n        /* \"#utility.yul\":5537:5566   */\n      swap1\n      pop\n        /* \"#utility.yul\":5403:5572   */\n      swap3\n      swap2\n      pop\n      pop\n      jump\t// out\n        /* \"#utility.yul\":5578:5726   */\n    tag_110:\n        /* \"#utility.yul\":5680:5691   */\n      0x00\n        /* \"#utility.yul\":5717:5720   */\n      dup2\n        /* \"#utility.yul\":5702:5720   */\n      swap1\n      pop\n        /* \"#utility.yul\":5578:5726   */\n      swap3\n      swap2\n      pop\n      pop\n      jump\t// out\n        /* \"#utility.yul\":5732:5881   */\n    tag_95:\n        /* \"#utility.yul\":5768:5775   */\n      0x00\n        /* \"#utility.yul\":5808:5874   */\n      0xff00000000000000000000000000000000000000000000000000000000000000\n        /* \"#utility.yul\":5801:5806   */\n      dup3\n        /* \"#utility.yul\":5797:5875   */\n      and\n        /* \"#utility.yul\":5786:5875   */\n      swap1\n      pop\n        /* \"#utility.yul\":5732:5881   */\n      swap2\n      swap1\n      pop\n      jump\t// out\n        /* \"#utility.yul\":5887:5964   */\n    tag_115:\n        /* \"#utility.yul\":5924:5931   */\n      0x00\n        /* \"#utility.yul\":5953:5958   */\n      dup2\n        /* \"#utility.yul\":5942:5958   */\n      swap1\n      pop\n        /* \"#utility.yul\":5887:5964   */\n      swap2\n      swap1\n      pop\n      jump\t// out\n        /* \"#utility.yul\":5970:6124   */\n    tag_57:\n        /* \"#utility.yul\":6054:6060   */\n      dup3\n        /* \"#utility.yul\":6049:6052   */\n      dup2\n        /* \"#utility.yul\":6044:6047   */\n      dup4\n        /* \"#utility.yul\":6031:6061   */\n      calldatacopy\n        /* \"#utility.yul\":6116:6117   */\n      0x00\n        /* \"#utility.yul\":6107:6113   */\n      dup4\n        /* \"#utility.yul\":6102:6105   */\n      dup4\n        /* \"#utility.yul\":6098:6114   */\n      add\n        /* \"#utility.yul\":6091:6118   */\n      mstore\n        /* \"#utility.yul\":5970:6124   */\n      pop\n      pop\n      pop\n      jump\t// out\n        /* \"#utility.yul\":6130:6437   */\n    tag_103:\n        /* \"#utility.yul\":6198:6199   */\n      0x00\n        /* \"#utility.yul\":6208:6321   */\n    tag_142:\n        /* \"#utility.yul\":6222:6228   */\n      dup4\n        /* \"#utility.yul\":6219:6220   */\n      dup2\n        /* \"#utility.yul\":6216:6229   */\n      lt\n        /* \"#utility.yul\":6208:6321   */\n      iszero\n      tag_144\n      jumpi\n        /* \"#utility.yul\":6307:6308   */\n      dup1\n        /* \"#utility.yul\":6302:6305   */\n      dup3\n        /* \"#utility.yul\":6298:6309   */\n      add\n        /* \"#utility.yul\":6292:6310   */\n      mload\n        /* \"#utility.yul\":6288:6289   */\n      dup2\n        /* \"#utility.yul\":6283:6286   */\n      dup5\n        /* \"#utility.yul\":6279:6290   */\n      add\n        /* \"#utility.yul\":6272:6311   */\n      mstore\n        /* \"#utility.yul\":6244:6246   */\n      0x20\n        /* \"#utility.yul\":6241:6242   */\n      dup2\n        /* \"#utility.yul\":6237:6247   */\n      add\n        /* \"#utility.yul\":6232:6247   */\n      swap1\n      pop\n        /* \"#utility.yul\":6208:6321   */\n      jump(tag_142)\n    tag_144:\n        /* \"#utility.yul\":6339:6345   */\n      dup4\n        /* \"#utility.yul\":6336:6337   */\n      dup2\n        /* \"#utility.yul\":6333:6346   */\n      gt\n        /* \"#utility.yul\":6330:6431   */\n      iszero\n      tag_145\n      jumpi\n        /* \"#utility.yul\":6419:6420   */\n      0x00\n        /* \"#utility.yul\":6410:6416   */\n      dup5\n        /* \"#utility.yul\":6405:6408   */\n      dup5\n        /* \"#utility.yul\":6401:6417   */\n      add\n        /* \"#utility.yul\":6394:6421   */\n      mstore\n        /* \"#utility.yul\":6330:6431   */\n    tag_145:\n        /* \"#utility.yul\":6179:6437   */\n      pop\n        /* \"#utility.yul\":6130:6437   */\n      pop\n      pop\n      pop\n      jump\t// out\n        /* \"#utility.yul\":6443:6763   */\n    tag_25:\n        /* \"#utility.yul\":6487:6493   */\n      0x00\n        /* \"#utility.yul\":6524:6525   */\n      0x02\n        /* \"#utility.yul\":6518:6522   */\n      dup3\n        /* \"#utility.yul\":6514:6526   */\n      div\n        /* \"#utility.yul\":6504:6526   */\n      swap1\n      pop\n        /* \"#utility.yul\":6571:6572   */\n      0x01\n        /* \"#utility.yul\":6565:6569   */\n      dup3\n        /* \"#utility.yul\":6561:6573   */\n      and\n        /* \"#utility.yul\":6592:6610   */\n      dup1\n        /* \"#utility.yul\":6582:6663   */\n      tag_147\n      jumpi\n        /* \"#utility.yul\":6648:6652   */\n      0x7f\n        /* \"#utility.yul\":6640:6646   */\n      dup3\n        /* \"#utility.yul\":6636:6653   */\n      and\n        /* \"#utility.yul\":6626:6653   */\n      swap2\n      pop\n        /* \"#utility.yul\":6582:6663   */\n    tag_147:\n        /* \"#utility.yul\":6710:6712   */\n      0x20\n        /* \"#utility.yul\":6702:6708   */\n      dup3\n        /* \"#utility.yul\":6699:6713   */\n      lt\n        /* \"#utility.yul\":6679:6697   */\n      dup2\n        /* \"#utility.yul\":6676:6714   */\n      eq\n        /* \"#utility.yul\":6673:6757   */\n      iszero\n      tag_148\n      jumpi\n        /* \"#utility.yul\":6729:6747   */\n      tag_149\n      tag_150\n      jump\t// in\n    tag_149:\n        /* \"#utility.yul\":6673:6757   */\n    tag_148:\n        /* \"#utility.yul\":6494:6763   */\n      pop\n        /* \"#utility.yul\":6443:6763   */\n      swap2\n      swap1\n      pop\n      jump\t// out\n        /* \"#utility.yul\":6769:7050   */\n    tag_128:\n        /* \"#utility.yul\":6852:6879   */\n      tag_152\n        /* \"#utility.yul\":6874:6878   */\n      dup3\n        /* \"#utility.yul\":6852:6879   */\n      tag_105\n      jump\t// in\n    tag_152:\n        /* \"#utility.yul\":6844:6850   */\n      dup2\n        /* \"#utility.yul\":6840:6880   */\n      add\n        /* \"#utility.yul\":6982:6988   */\n      dup2\n        /* \"#utility.yul\":6970:6980   */\n      dup2\n        /* \"#utility.yul\":6967:6989   */\n      lt\n        /* \"#utility.yul\":6946:6964   */\n      0xffffffffffffffff\n        /* \"#utility.yul\":6934:6944   */\n      dup3\n        /* \"#utility.yul\":6931:6965   */\n      gt\n        /* \"#utility.yul\":6928:6990   */\n      or\n        /* \"#utility.yul\":6925:7013   */\n      iszero\n      tag_153\n      jumpi\n        /* \"#utility.yul\":6993:7011   */\n      tag_154\n      tag_133\n      jump\t// in\n    tag_154:\n        /* \"#utility.yul\":6925:7013   */\n    tag_153:\n        /* \"#utility.yul\":7033:7043   */\n      dup1\n        /* \"#utility.yul\":7029:7031   */\n      0x40\n        /* \"#utility.yul\":7022:7044   */\n      mstore\n        /* \"#utility.yul\":6812:7050   */\n      pop\n        /* \"#utility.yul\":6769:7050   */\n      pop\n      pop\n      jump\t// out\n        /* \"#utility.yul\":7056:7236   */\n    tag_150:\n        /* \"#utility.yul\":7104:7181   */\n      0x4e487b7100000000000000000000000000000000000000000000000000000000\n        /* \"#utility.yul\":7101:7102   */\n      0x00\n        /* \"#utility.yul\":7094:7182   */\n      mstore\n        /* \"#utility.yul\":7201:7205   */\n      0x22\n        /* \"#utility.yul\":7198:7199   */\n      0x04\n        /* \"#utility.yul\":7191:7206   */\n      mstore\n        /* \"#utility.yul\":7225:7229   */\n      0x24\n        /* \"#utility.yul\":7222:7223   */\n      0x00\n        /* \"#utility.yul\":7215:7230   */\n      revert\n        /* \"#utility.yul\":7242:7422   */\n    tag_133:\n        /* \"#utility.yul\":7290:7367   */\n      0x4e487b7100000000000000000000000000000000000000000000000000000000\n        /* \"#utility.yul\":7287:7288   */\n      0x00\n        /* \"#utility.yul\":7280:7368   */\n      mstore\n        /* \"#utility.yul\":7387:7391   */\n      0x41\n        /* \"#utility.yul\":7384:7385   */\n      0x04\n        /* \"#utility.yul\":7377:7392   */\n      mstore\n        /* \"#utility.yul\":7411:7415   */\n      0x24\n        /* \"#utility.yul\":7408:7409   */\n      0x00\n        /* \"#utility.yul\":7401:7416   */\n      revert\n        /* \"#utility.yul\":7428:7545   */\n    tag_66:\n        /* \"#utility.yul\":7537:7538   */\n      0x00\n        /* \"#utility.yul\":7534:7535   */\n      dup1\n        /* \"#utility.yul\":7527:7539   */\n      revert\n        /* \"#utility.yul\":7551:7668   */\n    tag_55:\n        /* \"#utility.yul\":7660:7661   */\n      0x00\n        /* \"#utility.yul\":7657:7658   */\n      dup1\n        /* \"#utility.yul\":7650:7662   */\n      revert\n        /* \"#utility.yul\":7674:7791   */\n    tag_78:\n        /* \"#utility.yul\":7783:7784   */\n      0x00\n        /* \"#utility.yul\":7780:7781   */\n      dup1\n        /* \"#utility.yul\":7773:7785   */\n      revert\n        /* \"#utility.yul\":7797:7914   */\n    tag_75:\n        /* \"#utility.yul\":7906:7907   */\n      0x00\n        /* \"#utility.yul\":7903:7904   */\n      dup1\n        /* \"#utility.yul\":7896:7908   */\n      revert\n        /* \"#utility.yul\":7920:8022   */\n    tag_105:\n        /* \"#utility.yul\":7961:7967   */\n      0x00\n        /* \"#utility.yul\":8012:8014   */\n      0x1f\n        /* \"#utility.yul\":8008:8015   */\n      not\n        /* \"#utility.yul\":8003:8005   */\n      0x1f\n        /* \"#utility.yul\":7996:8001   */\n      dup4\n        /* \"#utility.yul\":7992:8006   */\n      add\n        /* \"#utility.yul\":7988:8016   */\n      and\n        /* \"#utility.yul\":7978:8016   */\n      swap1\n      pop\n        /* \"#utility.yul\":7920:8022   */\n      swap2\n      swap1\n      pop\n      jump\t// out\n        /* \"#utility.yul\":8028:8148   */\n    tag_61:\n        /* \"#utility.yul\":8100:8123   */\n      tag_163\n        /* \"#utility.yul\":8117:8122   */\n      dup2\n        /* \"#utility.yul\":8100:8123   */\n      tag_95\n      jump\t// in\n    tag_163:\n        /* \"#utility.yul\":8093:8098   */\n      dup2\n        /* \"#utility.yul\":8090:8124   */\n      eq\n        /* \"#utility.yul\":8080:8142   */\n      tag_164\n      jumpi\n        /* \"#utility.yul\":8138:8139   */\n      0x00\n        /* \"#utility.yul\":8135:8136   */\n      dup1\n        /* \"#utility.yul\":8128:8140   */\n      revert\n        /* \"#utility.yul\":8080:8142   */\n    tag_164:\n        /* \"#utility.yul\":8028:8148   */\n      pop\n      jump\t// out\n        /* \"#utility.yul\":8154:8276   */\n    tag_71:\n        /* \"#utility.yul\":8227:8251   */\n      tag_166\n        /* \"#utility.yul\":8245:8250   */\n      dup2\n        /* \"#utility.yul\":8227:8251   */\n      tag_115\n      jump\t// in\n    tag_166:\n        /* \"#utility.yul\":8220:8225   */\n      dup2\n        /* \"#utility.yul\":8217:8252   */\n      eq\n        /* \"#utility.yul\":8207:8270   */\n      tag_167\n      jumpi\n        /* \"#utility.yul\":8266:8267   */\n      0x00\n        /* \"#utility.yul\":8263:8264   */\n      dup1\n        /* \"#utility.yul\":8256:8268   */\n      revert\n        /* \"#utility.yul\":8207:8270   */\n    tag_167:\n        /* \"#utility.yul\":8154:8276   */\n      pop\n      jump\t// out\n\n    auxdata: 0xa26469706673582212208963db390fea9a49c38e5c7ac15761c9729ab66c09ab1ce66df4891c8a7a2a2a64736f6c63430008070033\n}\n",
				"bytecode": {
					"linkReferences": {},
					"object": "608060405234801561001057600080fd5b506107fa806100206000396000f3fe608060405234801561001057600080fd5b50600436106100415760003560e01c80634ceb1f7e146100465780637f57e41614610078578063dc69648414610094575b600080fd5b610060600480360381019061005b9190610427565b6100c4565b60405161006f9392919061057d565b60405180910390f35b610092600480360381019061008d9190610454565b610193565b005b6100ae60048036038101906100a991906103de565b610273565b6040516100bb9190610562565b60405180910390f35b600481815481106100d457600080fd5b90600052602060002090600302016000915090508060000154908060010180546100fd906106b0565b80601f0160208091040260200160405190810160405280929190818152602001828054610129906106b0565b80156101765780601f1061014b57610100808354040283529160200191610176565b820191906000526020600020905b81548152906001019060200180831161015957829003601f168201915b5050505050908060020160009054906101000a900460f81b905083565b60006040518060600160405280858152602001848152602001837effffffffffffffffffffffffffffffffffffffffffffffffffffffffffffff1916815250905060048190806001815401808255809150506001900390600052602060002090600302016000909190919091506000820151816000015560208201518160010190805190602001906102269291906102a1565b5060408201518160020160006101000a81548160ff021916908360f81c021790555050508360038460405161025b919061054b565b90815260200160405180910390208190555050505050565b6003818051602081018201805184825260208301602085012081835280955050505050506000915090505481565b8280546102ad906106b0565b90600052602060002090601f0160209004810192826102cf5760008555610316565b82601f106102e857805160ff1916838001178555610316565b82800160010185558215610316579182015b828111156103155782518255916020019190600101906102fa565b5b5090506103239190610327565b5090565b5b80821115610340576000816000905550600101610328565b5090565b6000610357610352846105e0565b6105bb565b90508281526020810184848401111561037357610372610776565b5b61037e84828561066e565b509392505050565b60008135905061039581610796565b92915050565b600082601f8301126103b0576103af610771565b5b81356103c0848260208601610344565b91505092915050565b6000813590506103d8816107ad565b92915050565b6000602082840312156103f4576103f3610780565b5b600082013567ffffffffffffffff8111156104125761041161077b565b5b61041e8482850161039b565b91505092915050565b60006020828403121561043d5761043c610780565b5b600061044b848285016103c9565b91505092915050565b60008060006060848603121561046d5761046c610780565b5b600061047b868287016103c9565b935050602084013567ffffffffffffffff81111561049c5761049b61077b565b5b6104a88682870161039b565b92505060406104b986828701610386565b9150509250925092565b6104cc81610638565b82525050565b60006104dd82610611565b6104e7818561061c565b93506104f781856020860161067d565b61050081610785565b840191505092915050565b600061051682610611565b610520818561062d565b935061053081856020860161067d565b80840191505092915050565b61054581610664565b82525050565b6000610557828461050b565b915081905092915050565b6000602082019050610577600083018461053c565b92915050565b6000606082019050610592600083018661053c565b81810360208301526105a481856104d2565b90506105b360408301846104c3565b949350505050565b60006105c56105d6565b90506105d182826106e2565b919050565b6000604051905090565b600067ffffffffffffffff8211156105fb576105fa610742565b5b61060482610785565b9050602081019050919050565b600081519050919050565b600082825260208201905092915050565b600081905092915050565b60007fff0000000000000000000000000000000000000000000000000000000000000082169050919050565b6000819050919050565b82818337600083830152505050565b60005b8381101561069b578082015181840152602081019050610680565b838111156106aa576000848401525b50505050565b600060028204905060018216806106c857607f821691505b602082108114156106dc576106db610713565b5b50919050565b6106eb82610785565b810181811067ffffffffffffffff8211171561070a57610709610742565b5b80604052505050565b7f4e487b7100000000000000000000000000000000000000000000000000000000600052602260045260246000fd5b7f4e487b7100000000000000000000000000000000000000000000000000000000600052604160045260246000fd5b600080fd5b600080fd5b600080fd5b600080fd5b6000601f19601f8301169050919050565b61079f81610638565b81146107aa57600080fd5b50565b6107b681610664565b81146107c157600080fd5b5056fea26469706673582212208963db390fea9a49c38e5c7ac15761c9729ab66c09ab1ce66df4891c8a7a2a2a64736f6c63430008070033",
					"opcodes": "PUSH1 0x80 PUSH1 0x40 MSTORE CALLVALUE DUP1 ISZERO PUSH2 0x10 JUMPI PUSH1 0x0 DUP1 REVERT JUMPDEST POP PUSH2 0x7FA DUP1 PUSH2 0x20 PUSH1 0x0 CODECOPY PUSH1 0x0 RETURN INVALID PUSH1 0x80 PUSH1 0x40 MSTORE CALLVALUE DUP1 ISZERO PUSH2 0x10 JUMPI PUSH1 0x0 DUP1 REVERT JUMPDEST POP PUSH1 0x4 CALLDATASIZE LT PUSH2 0x41 JUMPI PUSH1 0x0 CALLDATALOAD PUSH1 0xE0 SHR DUP1 PUSH4 0x4CEB1F7E EQ PUSH2 0x46 JUMPI DUP1 PUSH4 0x7F57E416 EQ PUSH2 0x78 JUMPI DUP1 PUSH4 0xDC696484 EQ PUSH2 0x94 JUMPI JUMPDEST PUSH1 0x0 DUP1 REVERT JUMPDEST PUSH2 0x60 PUSH1 0x4 DUP1 CALLDATASIZE SUB DUP2 ADD SWAP1 PUSH2 0x5B SWAP2 SWAP1 PUSH2 0x427 JUMP JUMPDEST PUSH2 0xC4 JUMP JUMPDEST PUSH1 0x40 MLOAD PUSH2 0x6F SWAP4 SWAP3 SWAP2 SWAP1 PUSH2 0x57D JUMP JUMPDEST PUSH1 0x40 MLOAD DUP1 SWAP2 SUB SWAP1 RETURN JUMPDEST PUSH2 0x92 PUSH1 0x4 DUP1 CALLDATASIZE SUB DUP2 ADD SWAP1 PUSH2 0x8D SWAP2 SWAP1 PUSH2 0x454 JUMP JUMPDEST PUSH2 0x193 JUMP JUMPDEST STOP JUMPDEST PUSH2 0xAE PUSH1 0x4 DUP1 CALLDATASIZE SUB DUP2 ADD SWAP1 PUSH2 0xA9 SWAP2 SWAP1 PUSH2 0x3DE JUMP JUMPDEST PUSH2 0x273 JUMP JUMPDEST PUSH1 0x40 MLOAD PUSH2 0xBB SWAP2 SWAP1 PUSH2 0x562 JUMP JUMPDEST PUSH1 0x40 MLOAD DUP1 SWAP2 SUB SWAP1 RETURN JUMPDEST PUSH1 0x4 DUP2 DUP2 SLOAD DUP2 LT PUSH2 0xD4 JUMPI PUSH1 0x0 DUP1 REVERT JUMPDEST SWAP1 PUSH1 0x0 MSTORE PUSH1 0x20 PUSH1 0x0 KECCAK256 SWAP1 PUSH1 0x3 MUL ADD PUSH1 0x0 SWAP2 POP SWAP1 POP DUP1 PUSH1 0x0 ADD SLOAD SWAP1 DUP1 PUSH1 0x1 ADD DUP1 SLOAD PUSH2 0xFD SWAP1 PUSH2 0x6B0 JUMP JUMPDEST DUP1 PUSH1 0x1F ADD PUSH1 0x20 DUP1 SWAP2 DIV MUL PUSH1 0x20 ADD PUSH1 0x40 MLOAD SWAP1 DUP2 ADD PUSH1 0x40 MSTORE DUP1 SWAP3 SWAP2 SWAP1 DUP2 DUP2 MSTORE PUSH1 0x20 ADD DUP3 DUP1 SLOAD PUSH2 0x129 SWAP1 PUSH2 0x6B0 JUMP JUMPDEST DUP1 ISZERO PUSH2 0x176 JUMPI DUP1 PUSH1 0x1F LT PUSH2 0x14B JUMPI PUSH2 0x100 DUP1 DUP4 SLOAD DIV MUL DUP4 MSTORE SWAP2 PUSH1 0x20 ADD SWAP2 PUSH2 0x176 JUMP JUMPDEST DUP3 ADD SWAP2 SWAP1 PUSH1 0x0 MSTORE PUSH1 0x20 PUSH1 0x0 KECCAK256 SWAP1 JUMPDEST DUP2 SLOAD DUP2 MSTORE SWAP1 PUSH1 0x1 ADD SWAP1 PUSH1 0x20 ADD DUP1 DUP4 GT PUSH2 0x159 JUMPI DUP3 SWAP1 SUB PUSH1 0x1F AND DUP3 ADD SWAP2 JUMPDEST POP POP POP POP POP SWAP1 DUP1 PUSH1 0x2 ADD PUSH1 0x0 SWAP1 SLOAD SWAP1 PUSH2 0x100 EXP SWAP1 DIV PUSH1 0xF8 SHL SWAP1 POP DUP4 JUMP JUMPDEST PUSH1 0x0 PUSH1 0x40 MLOAD DUP1 PUSH1 0x60 ADD PUSH1 0x40 MSTORE DUP1 DUP6 DUP2 MSTORE PUSH1 0x20 ADD DUP5 DUP2 MSTORE PUSH1 0x20 ADD DUP4 PUSH31 0xFFFFFFFFFFFFFFFFFFFFFFFFFFFFFFFFFFFFFFFFFFFFFFFFFFFFFFFFFFFFFF NOT AND DUP2 MSTORE POP SWAP1 POP PUSH1 0x4 DUP2 SWAP1 DUP1 PUSH1 0x1 DUP2 SLOAD ADD DUP1 DUP3 SSTORE DUP1 SWAP2 POP POP PUSH1 0x1 SWAP1 SUB SWAP1 PUSH1 0x0 MSTORE PUSH1 0x20 PUSH1 0x0 KECCAK256 SWAP1 PUSH1 0x3 MUL ADD PUSH1 0x0 SWAP1 SWAP2 SWAP1 SWAP2 SWAP1 SWAP2 POP PUSH1 0x0 DUP3 ADD MLOAD DUP2 PUSH1 0x0 ADD SSTORE PUSH1 0x20 DUP3 ADD MLOAD DUP2 PUSH1 0x1 ADD SWAP1 DUP1 MLOAD SWAP1 PUSH1 0x20 ADD SWAP1 PUSH2 0x226 SWAP3 SWAP2 SWAP1 PUSH2 0x2A1 JUMP JUMPDEST POP PUSH1 0x40 DUP3 ADD MLOAD DUP2 PUSH1 0x2 ADD PUSH1 0x0 PUSH2 0x100 EXP DUP2 SLOAD DUP2 PUSH1 0xFF MUL NOT AND SWAP1 DUP4 PUSH1 0xF8 SHR MUL OR SWAP1 SSTORE POP POP POP DUP4 PUSH1 0x3 DUP5 PUSH1 0x40 MLOAD PUSH2 0x25B SWAP2 SWAP1 PUSH2 0x54B JUMP JUMPDEST SWAP1 DUP2 MSTORE PUSH1 0x20 ADD PUSH1 0x40 MLOAD DUP1 SWAP2 SUB SWAP1 KECCAK256 DUP2 SWAP1 SSTORE POP POP POP POP POP JUMP JUMPDEST PUSH1 0x3 DUP2 DUP1 MLOAD PUSH1 0x20 DUP2 ADD DUP3 ADD DUP1 MLOAD DUP5 DUP3 MSTORE PUSH1 0x20 DUP4 ADD PUSH1 0x20 DUP6 ADD KECCAK256 DUP2 DUP4 MSTORE DUP1 SWAP6 POP POP POP POP POP POP PUSH1 0x0 SWAP2 POP SWAP1 POP SLOAD DUP2 JUMP JUMPDEST DUP3 DUP1 SLOAD PUSH2 0x2AD SWAP1 PUSH2 0x6B0 JUMP JUMPDEST SWAP1 PUSH1 0x0 MSTORE PUSH1 0x20 PUSH1 0x0 KECCAK256 SWAP1 PUSH1 0x1F ADD PUSH1 0x20 SWAP1 DIV DUP2 ADD SWAP3 DUP3 PUSH2 0x2CF JUMPI PUSH1 0x0 DUP6 SSTORE PUSH2 0x316 JUMP JUMPDEST DUP3 PUSH1 0x1F LT PUSH2 0x2E8 JUMPI DUP1 MLOAD PUSH1 0xFF NOT AND DUP4 DUP1 ADD OR DUP6 SSTORE PUSH2 0x316 JUMP JUMPDEST DUP3 DUP1 ADD PUSH1 0x1 ADD DUP6 SSTORE DUP3 ISZERO PUSH2 0x316 JUMPI SWAP2 DUP3 ADD JUMPDEST DUP3 DUP2 GT ISZERO PUSH2 0x315 JUMPI DUP3 MLOAD DUP3 SSTORE SWAP2 PUSH1 0x20 ADD SWAP2 SWAP1 PUSH1 0x1 ADD SWAP1 PUSH2 0x2FA JUMP JUMPDEST JUMPDEST POP SWAP1 POP PUSH2 0x323 SWAP2 SWAP1 PUSH2 0x327 JUMP JUMPDEST POP SWAP1 JUMP JUMPDEST JUMPDEST DUP1 DUP3 GT ISZERO PUSH2 0x340 JUMPI PUSH1 0x0 DUP2 PUSH1 0x0 SWAP1 SSTORE POP PUSH1 0x1 ADD PUSH2 0x328 JUMP JUMPDEST POP SWAP1 JUMP JUMPDEST PUSH1 0x0 PUSH2 0x357 PUSH2 0x352 DUP5 PUSH2 0x5E0 JUMP JUMPDEST PUSH2 0x5BB JUMP JUMPDEST SWAP1 POP DUP3 DUP2 MSTORE PUSH1 0x20 DUP2 ADD DUP5 DUP5 DUP5 ADD GT ISZERO PUSH2 0x373 JUMPI PUSH2 0x372 PUSH2 0x776 JUMP JUMPDEST JUMPDEST PUSH2 0x37E DUP5 DUP3 DUP6 PUSH2 0x66E JUMP JUMPDEST POP SWAP4 SWAP3 POP POP POP JUMP JUMPDEST PUSH1 0x0 DUP2 CALLDATALOAD SWAP1 POP PUSH2 0x395 DUP2 PUSH2 0x796 JUMP JUMPDEST SWAP3 SWAP2 POP POP JUMP JUMPDEST PUSH1 0x0 DUP3 PUSH1 0x1F DUP4 ADD SLT PUSH2 0x3B0 JUMPI PUSH2 0x3AF PUSH2 0x771 JUMP JUMPDEST JUMPDEST DUP2 CALLDATALOAD PUSH2 0x3C0 DUP5 DUP3 PUSH1 0x20 DUP7 ADD PUSH2 0x344 JUMP JUMPDEST SWAP2 POP POP SWAP3 SWAP2 POP POP JUMP JUMPDEST PUSH1 0x0 DUP2 CALLDATALOAD SWAP1 POP PUSH2 0x3D8 DUP2 PUSH2 0x7AD JUMP JUMPDEST SWAP3 SWAP2 POP POP JUMP JUMPDEST PUSH1 0x0 PUSH1 0x20 DUP3 DUP5 SUB SLT ISZERO PUSH2 0x3F4 JUMPI PUSH2 0x3F3 PUSH2 0x780 JUMP JUMPDEST JUMPDEST PUSH1 0x0 DUP3 ADD CALLDATALOAD PUSH8 0xFFFFFFFFFFFFFFFF DUP2 GT ISZERO PUSH2 0x412 JUMPI PUSH2 0x411 PUSH2 0x77B JUMP JUMPDEST JUMPDEST PUSH2 0x41E DUP5 DUP3 DUP6 ADD PUSH2 0x39B JUMP JUMPDEST SWAP2 POP POP SWAP3 SWAP2 POP POP JUMP JUMPDEST PUSH1 0x0 PUSH1 0x20 DUP3 DUP5 SUB SLT ISZERO PUSH2 0x43D JUMPI PUSH2 0x43C PUSH2 0x780 JUMP JUMPDEST JUMPDEST PUSH1 0x0 PUSH2 0x44B DUP5 DUP3 DUP6 ADD PUSH2 0x3C9 JUMP JUMPDEST SWAP2 POP POP SWAP3 SWAP2 POP POP JUMP JUMPDEST PUSH1 0x0 DUP1 PUSH1 0x0 PUSH1 0x60 DUP5 DUP7 SUB SLT ISZERO PUSH2 0x46D JUMPI PUSH2 0x46C PUSH2 0x780 JUMP JUMPDEST JUMPDEST PUSH1 0x0 PUSH2 0x47B DUP7 DUP3 DUP8 ADD PUSH2 0x3C9 JUMP JUMPDEST SWAP4 POP POP PUSH1 0x20 DUP5 ADD CALLDATALOAD PUSH8 0xFFFFFFFFFFFFFFFF DUP2 GT ISZERO PUSH2 0x49C JUMPI PUSH2 0x49B PUSH2 0x77B JUMP JUMPDEST JUMPDEST PUSH2 0x4A8 DUP7 DUP3 DUP8 ADD PUSH2 0x39B JUMP JUMPDEST SWAP3 POP POP PUSH1 0x40 PUSH2 0x4B9 DUP7 DUP3 DUP8 ADD PUSH2 0x386 JUMP JUMPDEST SWAP2 POP POP SWAP3 POP SWAP3 POP SWAP3 JUMP JUMPDEST PUSH2 0x4CC DUP2 PUSH2 0x638 JUMP JUMPDEST DUP3 MSTORE POP POP JUMP JUMPDEST PUSH1 0x0 PUSH2 0x4DD DUP3 PUSH2 0x611 JUMP JUMPDEST PUSH2 0x4E7 DUP2 DUP6 PUSH2 0x61C JUMP JUMPDEST SWAP4 POP PUSH2 0x4F7 DUP2 DUP6 PUSH1 0x20 DUP7 ADD PUSH2 0x67D JUMP JUMPDEST PUSH2 0x500 DUP2 PUSH2 0x785 JUMP JUMPDEST DUP5 ADD SWAP2 POP POP SWAP3 SWAP2 POP POP JUMP JUMPDEST PUSH1 0x0 PUSH2 0x516 DUP3 PUSH2 0x611 JUMP JUMPDEST PUSH2 0x520 DUP2 DUP6 PUSH2 0x62D JUMP JUMPDEST SWAP4 POP PUSH2 0x530 DUP2 DUP6 PUSH1 0x20 DUP7 ADD PUSH2 0x67D JUMP JUMPDEST DUP1 DUP5 ADD SWAP2 POP POP SWAP3 SWAP2 POP POP JUMP JUMPDEST PUSH2 0x545 DUP2 PUSH2 0x664 JUMP JUMPDEST DUP3 MSTORE POP POP JUMP JUMPDEST PUSH1 0x0 PUSH2 0x557 DUP3 DUP5 PUSH2 0x50B JUMP JUMPDEST SWAP2 POP DUP2 SWAP1 POP SWAP3 SWAP2 POP POP JUMP JUMPDEST PUSH1 0x0 PUSH1 0x20 DUP3 ADD SWAP1 POP PUSH2 0x577 PUSH1 0x0 DUP4 ADD DUP5 PUSH2 0x53C JUMP JUMPDEST SWAP3 SWAP2 POP POP JUMP JUMPDEST PUSH1 0x0 PUSH1 0x60 DUP3 ADD SWAP1 POP PUSH2 0x592 PUSH1 0x0 DUP4 ADD DUP7 PUSH2 0x53C JUMP JUMPDEST DUP2 DUP2 SUB PUSH1 0x20 DUP4 ADD MSTORE PUSH2 0x5A4 DUP2 DUP6 PUSH2 0x4D2 JUMP JUMPDEST SWAP1 POP PUSH2 0x5B3 PUSH1 0x40 DUP4 ADD DUP5 PUSH2 0x4C3 JUMP JUMPDEST SWAP5 SWAP4 POP POP POP POP JUMP JUMPDEST PUSH1 0x0 PUSH2 0x5C5 PUSH2 0x5D6 JUMP JUMPDEST SWAP1 POP PUSH2 0x5D1 DUP3 DUP3 PUSH2 0x6E2 JUMP JUMPDEST SWAP2 SWAP1 POP JUMP JUMPDEST PUSH1 0x0 PUSH1 0x40 MLOAD SWAP1 POP SWAP1 JUMP JUMPDEST PUSH1 0x0 PUSH8 0xFFFFFFFFFFFFFFFF DUP3 GT ISZERO PUSH2 0x5FB JUMPI PUSH2 0x5FA PUSH2 0x742 JUMP JUMPDEST JUMPDEST PUSH2 0x604 DUP3 PUSH2 0x785 JUMP JUMPDEST SWAP1 POP PUSH1 0x20 DUP2 ADD SWAP1 POP SWAP2 SWAP1 POP JUMP JUMPDEST PUSH1 0x0 DUP2 MLOAD SWAP1 POP SWAP2 SWAP1 POP JUMP JUMPDEST PUSH1 0x0 DUP3 DUP3 MSTORE PUSH1 0x20 DUP3 ADD SWAP1 POP SWAP3 SWAP2 POP POP JUMP JUMPDEST PUSH1 0x0 DUP2 SWAP1 POP SWAP3 SWAP2 POP POP JUMP JUMPDEST PUSH1 0x0 PUSH32 0xFF00000000000000000000000000000000000000000000000000000000000000 DUP3 AND SWAP1 POP SWAP2 SWAP1 POP JUMP JUMPDEST PUSH1 0x0 DUP2 SWAP1 POP SWAP2 SWAP1 POP JUMP JUMPDEST DUP3 DUP2 DUP4 CALLDATACOPY PUSH1 0x0 DUP4 DUP4 ADD MSTORE POP POP POP JUMP JUMPDEST PUSH1 0x0 JUMPDEST DUP4 DUP2 LT ISZERO PUSH2 0x69B JUMPI DUP1 DUP3 ADD MLOAD DUP2 DUP5 ADD MSTORE PUSH1 0x20 DUP2 ADD SWAP1 POP PUSH2 0x680 JUMP JUMPDEST DUP4 DUP2 GT ISZERO PUSH2 0x6AA JUMPI PUSH1 0x0 DUP5 DUP5 ADD MSTORE JUMPDEST POP POP POP POP JUMP JUMPDEST PUSH1 0x0 PUSH1 0x2 DUP3 DIV SWAP1 POP PUSH1 0x1 DUP3 AND DUP1 PUSH2 0x6C8 JUMPI PUSH1 0x7F DUP3 AND SWAP2 POP JUMPDEST PUSH1 0x20 DUP3 LT DUP2 EQ ISZERO PUSH2 0x6DC JUMPI PUSH2 0x6DB PUSH2 0x713 JUMP JUMPDEST JUMPDEST POP SWAP2 SWAP1 POP JUMP JUMPDEST PUSH2 0x6EB DUP3 PUSH2 0x785 JUMP JUMPDEST DUP2 ADD DUP2 DUP2 LT PUSH8 0xFFFFFFFFFFFFFFFF DUP3 GT OR ISZERO PUSH2 0x70A JUMPI PUSH2 0x709 PUSH2 0x742 JUMP JUMPDEST JUMPDEST DUP1 PUSH1 0x40 MSTORE POP POP POP JUMP JUMPDEST PUSH32 0x4E487B7100000000000000000000000000000000000000000000000000000000 PUSH1 0x0 MSTORE PUSH1 0x22 PUSH1 0x4 MSTORE PUSH1 0x24 PUSH1 0x0 REVERT JUMPDEST PUSH32 0x4E487B7100000000000000000000000000000000000000000000000000000000 PUSH1 0x0 MSTORE PUSH1 0x41 PUSH1 0x4 MSTORE PUSH1 0x24 PUSH1 0x0 REVERT JUMPDEST PUSH1 0x0 DUP1 REVERT JUMPDEST PUSH1 0x0 DUP1 REVERT JUMPDEST PUSH1 0x0 DUP1 REVERT JUMPDEST PUSH1 0x0 DUP1 REVERT JUMPDEST PUSH1 0x0 PUSH1 0x1F NOT PUSH1 0x1F DUP4 ADD AND SWAP1 POP SWAP2 SWAP1 POP JUMP JUMPDEST PUSH2 0x79F DUP2 PUSH2 0x638 JUMP JUMPDEST DUP2 EQ PUSH2 0x7AA JUMPI PUSH1 0x0 DUP1 REVERT JUMPDEST POP JUMP JUMPDEST PUSH2 0x7B6 DUP2 PUSH2 0x664 JUMP JUMPDEST DUP2 EQ PUSH2 0x7C1 JUMPI PUSH1 0x0 DUP1 REVERT JUMPDEST POP JUMP INVALID LOG2 PUSH5 0x6970667358 0x22 SLT KECCAK256 DUP10 PUSH4 0xDB390FEA SWAP11 0x49 0xC3 DUP15 0x5C PUSH27 0xC15761C9729AB66C09AB1CE66DF4891C8A7A2A2A64736F6C634300 ADDMOD SMOD STOP CALLER "
				},
				"gasEstimates": {
					"creation": {
						"codeDepositCost": "408400",
						"executionCost": "443",
						"totalCost": "408843"
					},
					"external": {
						"addPug(uint256,string,bytes1)": "infinite",
						"nameToUniqueIdentifier(string)": "infinite",
						"pug(uint256)": "infinite"
					}
				},
				"methodIdentifiers": {
					"addPug(uint256,string,bytes1)": "7f57e416",
					"nameToUniqueIdentifier(string)": "dc696484",
					"pug(uint256)": "4ceb1f7e"
				}
			},
			"storageLayout": {
				"storage": [
					{
						"astId": 3,
						"contract": "Contracts/PugCodeArray.sol:PugCode102",
						"label": "pugUniqueIdentifier",
						"offset": 0,
						"slot": "0",
						"type": "t_uint256"
					},
					{
						"astId": 5,
						"contract": "Contracts/PugCodeArray.sol:PugCode102",
						"label": "pugName",
						"offset": 0,
						"slot": "1",
						"type": "t_string_storage"
					},
					{
						"astId": 7,
						"contract": "Contracts/PugCodeArray.sol:PugCode102",
						"label": "pugType",
						"offset": 0,
						"slot": "2",
						"type": "t_bytes1"
					},
					{
						"astId": 11,
						"contract": "Contracts/PugCodeArray.sol:PugCode102",
						"label": "nameToUniqueIdentifier",
						"offset": 0,
						"slot": "3",
						"type": "t_mapping(t_string_memory_ptr,t_uint256)"
					},
					{
						"astId": 22,
						"contract": "Contracts/PugCodeArray.sol:PugCode102",
						"label": "pug",
						"offset": 0,
						"slot": "4",
						"type": "t_array(t_struct(Pug)18_storage)dyn_storage"
					}
				],
				"types": {
					"t_array(t_struct(Pug)18_storage)dyn_storage": {
						"base": "t_struct(Pug)18_storage",
						"encoding": "dynamic_array",
						"label": "struct PugCode102.Pug[]",
						"numberOfBytes": "32"
					},
					"t_bytes1": {
						"encoding": "inplace",
						"label": "bytes1",
						"numberOfBytes": "1"
					},
					"t_mapping(t_string_memory_ptr,t_uint256)": {
						"encoding": "mapping",
						"key": "t_string_memory_ptr",
						"label": "mapping(string => uint256)",
						"numberOfBytes": "32",
						"value": "t_uint256"
					},
					"t_string_memory_ptr": {
						"encoding": "bytes",
						"label": "string",
						"numberOfBytes": "32"
					},
					"t_string_storage": {
						"encoding": "bytes",
						"label": "string",
						"numberOfBytes": "32"
					},
					"t_struct(Pug)18_storage": {
						"encoding": "inplace",
						"label": "struct PugCode102.Pug",
						"members": [
							{
								"astId": 13,
								"contract": "Contracts/PugCodeArray.sol:PugCode102",
								"label": "pugUniqueIdentifier",
								"offset": 0,
								"slot": "0",
								"type": "t_uint256"
							},
							{
								"astId": 15,
								"contract": "Contracts/PugCodeArray.sol:PugCode102",
								"label": "pugName",
								"offset": 0,
								"slot": "1",
								"type": "t_string_storage"
							},
							{
								"astId": 17,
								"contract": "Contracts/PugCodeArray.sol:PugCode102",
								"label": "pugType",
								"offset": 0,
								"slot": "2",
								"type": "t_bytes1"
							}
						],
						"numberOfBytes": "96"
					},
					"t_uint256": {
						"encoding": "inplace",
						"label": "uint256",
						"numberOfBytes": "32"
					}
				}
			},
			"userdoc": {
				"kind": "user",
				"methods": {},
				"version": 1
			}
		}
	}
}