{
	"data": {
		"bytecode": {
			"linkReferences": {},
			"object": "60806040526040518060600160405280600181526020016040518060400160405280600781526020017f42697363756974000000000000000000000000000000000000000000000000008152508152602001600060f81b7effffffffffffffffffffffffffffffffffffffffffffffffffffffffffffff191681525060036000820151816000015560208201518160010190805190602001906100a39291906100d9565b5060408201518160020160006101000a81548160ff021916908360f81c021790555050503480156100d357600080fd5b506101dd565b8280546100e59061017c565b90600052602060002090601f016020900481019282610107576000855561014e565b82601f1061012057805160ff191683800117855561014e565b8280016001018555821561014e579182015b8281111561014d578251825591602001919060010190610132565b5b50905061015b919061015f565b5090565b5b80821115610178576000816000905550600101610160565b5090565b6000600282049050600182168061019457607f821691505b602082108114156101a8576101a76101ae565b5b50919050565b7f4e487b7100000000000000000000000000000000000000000000000000000000600052602260045260246000fd5b61039b806101ec6000396000f3fe608060405234801561001057600080fd5b50600436106100415760003560e01c80635801c10d14610046578063afb3c1ff14610066578063b03a8a4b14610084575b600080fd5b61004e6100a0565b60405161005d93929190610214565b60405180910390f35b61006e61014d565b60405161007b91906101f9565b60405180910390f35b61009e60048036038101906100999190610175565b610156565b005b60038060000154908060010180546100b7906102d7565b80601f01602080910402602001604051908101604052809291908181526020018280546100e3906102d7565b80156101305780601f1061010557610100808354040283529160200191610130565b820191906000526020600020905b81548152906001019060200180831161011357829003601f168201915b5050505050908060020160009054906101000a900460f81b905083565b60008054905090565b8060008190555050565b60008135905061016f8161034e565b92915050565b60006020828403121561018b5761018a610338565b5b600061019984828501610160565b91505092915050565b6101ab8161026e565b82525050565b60006101bc82610252565b6101c6818561025d565b93506101d68185602086016102a4565b6101df8161033d565b840191505092915050565b6101f38161029a565b82525050565b600060208201905061020e60008301846101ea565b92915050565b600060608201905061022960008301866101ea565b818103602083015261023b81856101b1565b905061024a60408301846101a2565b949350505050565b600081519050919050565b600082825260208201905092915050565b60007fff0000000000000000000000000000000000000000000000000000000000000082169050919050565b6000819050919050565b60005b838110156102c25780820151818401526020810190506102a7565b838111156102d1576000848401525b50505050565b600060028204905060018216806102ef57607f821691505b6020821081141561030357610302610309565b5b50919050565b7f4e487b7100000000000000000000000000000000000000000000000000000000600052602260045260246000fd5b600080fd5b6000601f19601f8301169050919050565b6103578161029a565b811461036257600080fd5b5056fea2646970667358221220d6b55e8f6efede037babbdccc4ae95842eac47cdc4abf178a7b282f23d6d4c3c64736f6c63430008070033",
			"opcodes": "PUSH1 0x80 PUSH1 0x40 MSTORE PUSH1 0x40 MLOAD DUP1 PUSH1 0x60 ADD PUSH1 0x40 MSTORE DUP1 PUSH1 0x1 DUP2 MSTORE PUSH1 0x20 ADD PUSH1 0x40 MLOAD DUP1 PUSH1 0x40 ADD PUSH1 0x40 MSTORE DUP1 PUSH1 0x7 DUP2 MSTORE PUSH1 0x20 ADD PUSH32 0x4269736375697400000000000000000000000000000000000000000000000000 DUP2 MSTORE POP DUP2 MSTORE PUSH1 0x20 ADD PUSH1 0x0 PUSH1 0xF8 SHL PUSH31 0xFFFFFFFFFFFFFFFFFFFFFFFFFFFFFFFFFFFFFFFFFFFFFFFFFFFFFFFFFFFFFF NOT AND DUP2 MSTORE POP PUSH1 0x3 PUSH1 0x0 DUP3 ADD MLOAD DUP2 PUSH1 0x0 ADD SSTORE PUSH1 0x20 DUP3 ADD MLOAD DUP2 PUSH1 0x1 ADD SWAP1 DUP1 MLOAD SWAP1 PUSH1 0x20 ADD SWAP1 PUSH2 0xA3 SWAP3 SWAP2 SWAP1 PUSH2 0xD9 JUMP JUMPDEST POP PUSH1 0x40 DUP3 ADD MLOAD DUP2 PUSH1 0x2 ADD PUSH1 0x0 PUSH2 0x100 EXP DUP2 SLOAD DUP2 PUSH1 0xFF MUL NOT AND SWAP1 DUP4 PUSH1 0xF8 SHR MUL OR SWAP1 SSTORE POP POP POP CALLVALUE DUP1 ISZERO PUSH2 0xD3 JUMPI PUSH1 0x0 DUP1 REVERT JUMPDEST POP PUSH2 0x1DD JUMP JUMPDEST DUP3 DUP1 SLOAD PUSH2 0xE5 SWAP1 PUSH2 0x17C JUMP JUMPDEST SWAP1 PUSH1 0x0 MSTORE PUSH1 0x20 PUSH1 0x0 KECCAK256 SWAP1 PUSH1 0x1F ADD PUSH1 0x20 SWAP1 DIV DUP2 ADD SWAP3 DUP3 PUSH2 0x107 JUMPI PUSH1 0x0 DUP6 SSTORE PUSH2 0x14E JUMP JUMPDEST DUP3 PUSH1 0x1F LT PUSH2 0x120 JUMPI DUP1 MLOAD PUSH1 0xFF NOT AND DUP4 DUP1 ADD OR DUP6 SSTORE PUSH2 0x14E JUMP JUMPDEST DUP3 DUP1 ADD PUSH1 0x1 ADD DUP6 SSTORE DUP3 ISZERO PUSH2 0x14E JUMPI SWAP2 DUP3 ADD JUMPDEST DUP3 DUP2 GT ISZERO PUSH2 0x14D JUMPI DUP3 MLOAD DUP3 SSTORE SWAP2 PUSH1 0x20 ADD SWAP2 SWAP1 PUSH1 0x1 ADD SWAP1 PUSH2 0x132 JUMP JUMPDEST JUMPDEST POP SWAP1 POP PUSH2 0x15B SWAP2 SWAP1 PUSH2 0x15F JUMP JUMPDEST POP SWAP1 JUMP JUMPDEST JUMPDEST DUP1 DUP3 GT ISZERO PUSH2 0x178 JUMPI PUSH1 0x0 DUP2 PUSH1 0x0 SWAP1 SSTORE POP PUSH1 0x1 ADD PUSH2 0x160 JUMP JUMPDEST POP SWAP1 JUMP JUMPDEST PUSH1 0x0 PUSH1 0x2 DUP3 DIV SWAP1 POP PUSH1 0x1 DUP3 AND DUP1 PUSH2 0x194 JUMPI PUSH1 0x7F DUP3 AND SWAP2 POP JUMPDEST PUSH1 0x20 DUP3 LT DUP2 EQ ISZERO PUSH2 0x1A8 JUMPI PUSH2 0x1A7 PUSH2 0x1AE JUMP JUMPDEST JUMPDEST POP SWAP2 SWAP1 POP JUMP JUMPDEST PUSH32 0x4E487B7100000000000000000000000000000000000000000000000000000000 PUSH1 0x0 MSTORE PUSH1 0x22 PUSH1 0x4 MSTORE PUSH1 0x24 PUSH1 0x0 REVERT JUMPDEST PUSH2 0x39B DUP1 PUSH2 0x1EC PUSH1 0x0 CODECOPY PUSH1 0x0 RETURN INVALID PUSH1 0x80 PUSH1 0x40 MSTORE CALLVALUE DUP1 ISZERO PUSH2 0x10 JUMPI PUSH1 0x0 DUP1 REVERT JUMPDEST POP PUSH1 0x4 CALLDATASIZE LT PUSH2 0x41 JUMPI PUSH1 0x0 CALLDATALOAD PUSH1 0xE0 SHR DUP1 PUSH4 0x5801C10D EQ PUSH2 0x46 JUMPI DUP1 PUSH4 0xAFB3C1FF EQ PUSH2 0x66 JUMPI DUP1 PUSH4 0xB03A8A4B EQ PUSH2 0x84 JUMPI JUMPDEST PUSH1 0x0 DUP1 REVERT JUMPDEST PUSH2 0x4E PUSH2 0xA0 JUMP JUMPDEST PUSH1 0x40 MLOAD PUSH2 0x5D SWAP4 SWAP3 SWAP2 SWAP1 PUSH2 0x214 JUMP JUMPDEST PUSH1 0x40 MLOAD DUP1 SWAP2 SUB SWAP1 RETURN JUMPDEST PUSH2 0x6E PUSH2 0x14D JUMP JUMPDEST PUSH1 0x40 MLOAD PUSH2 0x7B SWAP2 SWAP1 PUSH2 0x1F9 JUMP JUMPDEST PUSH1 0x40 MLOAD DUP1 SWAP2 SUB SWAP1 RETURN JUMPDEST PUSH2 0x9E PUSH1 0x4 DUP1 CALLDATASIZE SUB DUP2 ADD SWAP1 PUSH2 0x99 SWAP2 SWAP1 PUSH2 0x175 JUMP JUMPDEST PUSH2 0x156 JUMP JUMPDEST STOP JUMPDEST PUSH1 0x3 DUP1 PUSH1 0x0 ADD SLOAD SWAP1 DUP1 PUSH1 0x1 ADD DUP1 SLOAD PUSH2 0xB7 SWAP1 PUSH2 0x2D7 JUMP JUMPDEST DUP1 PUSH1 0x1F ADD PUSH1 0x20 DUP1 SWAP2 DIV MUL PUSH1 0x20 ADD PUSH1 0x40 MLOAD SWAP1 DUP2 ADD PUSH1 0x40 MSTORE DUP1 SWAP3 SWAP2 SWAP1 DUP2 DUP2 MSTORE PUSH1 0x20 ADD DUP3 DUP1 SLOAD PUSH2 0xE3 SWAP1 PUSH2 0x2D7 JUMP JUMPDEST DUP1 ISZERO PUSH2 0x130 JUMPI DUP1 PUSH1 0x1F LT PUSH2 0x105 JUMPI PUSH2 0x100 DUP1 DUP4 SLOAD DIV MUL DUP4 MSTORE SWAP2 PUSH1 0x20 ADD SWAP2 PUSH2 0x130 JUMP JUMPDEST DUP3 ADD SWAP2 SWAP1 PUSH1 0x0 MSTORE PUSH1 0x20 PUSH1 0x0 KECCAK256 SWAP1 JUMPDEST DUP2 SLOAD DUP2 MSTORE SWAP1 PUSH1 0x1 ADD SWAP1 PUSH1 0x20 ADD DUP1 DUP4 GT PUSH2 0x113 JUMPI DUP3 SWAP1 SUB PUSH1 0x1F AND DUP3 ADD SWAP2 JUMPDEST POP POP POP POP POP SWAP1 DUP1 PUSH1 0x2 ADD PUSH1 0x0 SWAP1 SLOAD SWAP1 PUSH2 0x100 EXP SWAP1 DIV PUSH1 0xF8 SHL SWAP1 POP DUP4 JUMP JUMPDEST PUSH1 0x0 DUP1 SLOAD SWAP1 POP SWAP1 JUMP JUMPDEST DUP1 PUSH1 0x0 DUP2 SWAP1 SSTORE POP POP JUMP JUMPDEST PUSH1 0x0 DUP2 CALLDATALOAD SWAP1 POP PUSH2 0x16F DUP2 PUSH2 0x34E JUMP JUMPDEST SWAP3 SWAP2 POP POP JUMP JUMPDEST PUSH1 0x0 PUSH1 0x20 DUP3 DUP5 SUB SLT ISZERO PUSH2 0x18B JUMPI PUSH2 0x18A PUSH2 0x338 JUMP JUMPDEST JUMPDEST PUSH1 0x0 PUSH2 0x199 DUP5 DUP3 DUP6 ADD PUSH2 0x160 JUMP JUMPDEST SWAP2 POP POP SWAP3 SWAP2 POP POP JUMP JUMPDEST PUSH2 0x1AB DUP2 PUSH2 0x26E JUMP JUMPDEST DUP3 MSTORE POP POP JUMP JUMPDEST PUSH1 0x0 PUSH2 0x1BC DUP3 PUSH2 0x252 JUMP JUMPDEST PUSH2 0x1C6 DUP2 DUP6 PUSH2 0x25D JUMP JUMPDEST SWAP4 POP PUSH2 0x1D6 DUP2 DUP6 PUSH1 0x20 DUP7 ADD PUSH2 0x2A4 JUMP JUMPDEST PUSH2 0x1DF DUP2 PUSH2 0x33D JUMP JUMPDEST DUP5 ADD SWAP2 POP POP SWAP3 SWAP2 POP POP JUMP JUMPDEST PUSH2 0x1F3 DUP2 PUSH2 0x29A JUMP JUMPDEST DUP3 MSTORE POP POP JUMP JUMPDEST PUSH1 0x0 PUSH1 0x20 DUP3 ADD SWAP1 POP PUSH2 0x20E PUSH1 0x0 DUP4 ADD DUP5 PUSH2 0x1EA JUMP JUMPDEST SWAP3 SWAP2 POP POP JUMP JUMPDEST PUSH1 0x0 PUSH1 0x60 DUP3 ADD SWAP1 POP PUSH2 0x229 PUSH1 0x0 DUP4 ADD DUP7 PUSH2 0x1EA JUMP JUMPDEST DUP2 DUP2 SUB PUSH1 0x20 DUP4 ADD MSTORE PUSH2 0x23B DUP2 DUP6 PUSH2 0x1B1 JUMP JUMPDEST SWAP1 POP PUSH2 0x24A PUSH1 0x40 DUP4 ADD DUP5 PUSH2 0x1A2 JUMP JUMPDEST SWAP5 SWAP4 POP POP POP POP JUMP JUMPDEST PUSH1 0x0 DUP2 MLOAD SWAP1 POP SWAP2 SWAP1 POP JUMP JUMPDEST PUSH1 0x0 DUP3 DUP3 MSTORE PUSH1 0x20 DUP3 ADD SWAP1 POP SWAP3 SWAP2 POP POP JUMP JUMPDEST PUSH1 0x0 PUSH32 0xFF00000000000000000000000000000000000000000000000000000000000000 DUP3 AND SWAP1 POP SWAP2 SWAP1 POP JUMP JUMPDEST PUSH1 0x0 DUP2 SWAP1 POP SWAP2 SWAP1 POP JUMP JUMPDEST PUSH1 0x0 JUMPDEST DUP4 DUP2 LT ISZERO PUSH2 0x2C2 JUMPI DUP1 DUP3 ADD MLOAD DUP2 DUP5 ADD MSTORE PUSH1 0x20 DUP2 ADD SWAP1 POP PUSH2 0x2A7 JUMP JUMPDEST DUP4 DUP2 GT ISZERO PUSH2 0x2D1 JUMPI PUSH1 0x0 DUP5 DUP5 ADD MSTORE JUMPDEST POP POP POP POP JUMP JUMPDEST PUSH1 0x0 PUSH1 0x2 DUP3 DIV SWAP1 POP PUSH1 0x1 DUP3 AND DUP1 PUSH2 0x2EF JUMPI PUSH1 0x7F DUP3 AND SWAP2 POP JUMPDEST PUSH1 0x20 DUP3 LT DUP2 EQ ISZERO PUSH2 0x303 JUMPI PUSH2 0x302 PUSH2 0x309 JUMP JUMPDEST JUMPDEST POP SWAP2 SWAP1 POP JUMP JUMPDEST PUSH32 0x4E487B7100000000000000000000000000000000000000000000000000000000 PUSH1 0x0 MSTORE PUSH1 0x22 PUSH1 0x4 MSTORE PUSH1 0x24 PUSH1 0x0 REVERT JUMPDEST PUSH1 0x0 DUP1 REVERT JUMPDEST PUSH1 0x0 PUSH1 0x1F NOT PUSH1 0x1F DUP4 ADD AND SWAP1 POP SWAP2 SWAP1 POP JUMP JUMPDEST PUSH2 0x357 DUP2 PUSH2 0x29A JUMP JUMPDEST DUP2 EQ PUSH2 0x362 JUMPI PUSH1 0x0 DUP1 REVERT JUMPDEST POP JUMP INVALID LOG2 PUSH5 0x6970667358 0x22 SLT KECCAK256 0xD6 0xB5 0x5E DUP16 PUSH15 0xFEDE037BABBDCCC4AE95842EAC47CD 0xC4 0xAB CALL PUSH25 0xA7B282F23D6D4C3C64736F6C63430008070033000000000000 "
		},
		"gasEstimates": {
			"creation": {
				"codeDepositCost": "184600",
				"executionCost": "infinite",
				"totalCost": "infinite"
			},
			"external": {
				"Biscuit()": "infinite",
				"pugShowNumber()": "2437",
				"pugStore(uint256)": "22542"
			}
		},
		"methodIdentifiers": {
			"Biscuit()": "5801c10d",
			"pugShowNumber()": "afb3c1ff",
			"pugStore(uint256)": "b03a8a4b"
		}
	},
	"abi": [
		{
			"inputs": [],
			"name": "Biscuit",
			"outputs": [
				{
					"internalType": "uint256",
					"name": "pugUniqueIdentifier",
					"type": "uint256"
				},
				{
					"internalType": "string",
					"name": "pugName",
					"type": "string"
				},
				{
					"internalType": "bytes1",
					"name": "pugType",
					"type": "bytes1"
				}
			],
			"stateMutability": "view",
			"type": "function"
		},
		{
			"inputs": [],
			"name": "pugShowNumber",
			"outputs": [
				{
					"internalType": "uint256",
					"name": "",
					"type": "uint256"
				}
			],
			"stateMutability": "view",
			"type": "function"
		},
		{
			"inputs": [
				{
					"internalType": "uint256",
					"name": "_pugNumber",
					"type": "uint256"
				}
			],
			"name": "pugStore",
			"outputs": [],
			"stateMutability": "nonpayable",
			"type": "function"
		}
	]
}